:020000040800F2
:1000000030040020450100089512000891120008F4
:100010009312000891110008151C00080000000050
:10002000000000000000000000000000B5150008FE
:100030009311000800000000291300086116000851
:100040005F0100085F0100085F0100085F01000810
:100050005F0100085F0100085F0100085F01000800
:100060005F0100085F0100085F0100085F010008F0
:100070005F0100085F0100085F0100085F010008E0
:100080005F0100085F0100085F0100085F010008D0
:100090005F0100085F0100085F0100085F010008C0
:1000A0005F0100085F0100085F0100085F010008B0
:1000B000B51600085F0100085F0100085F01000835
:1000C0005F0100085F0100085F0100085F01000890
:1000D0005F010008491900085F0100085F0100087E
:1000E0005F0100085F0100085F0100085F01000870
:1000F0005F0100085F0100085F0100085F01000860
:100100005F0100085F0100085F0100085F0100084F
:100110005F0100085F0100085F0100085F0100083F
:100120005F0100085F0100085F0100085F0100082F
:10013000DFF80CD000F0FCFD004800474125000826
:10014000300400200648804706480047FEE7FEE7E7
:10015000FEE7FEE7FEE7FEE7FEE7FEE7FEE7FEE777
:1001600065160008310100080FB400B589B00BA86E
:1001700000906A4603480A9900F074FC09B05DF8E3
:1001800014FB0000240000200FB400B58DB010A9AE
:1001900009900B9000914FF0FF300A9000200C90D6
:1001A00005480690054807906A4609A80F9900F08F
:1001B0002BFC0DB05DF814FB250A0008430A00086B
:1001C0002DE9FF5F1D464FF0FF3BD5E90146914603
:1001D0005F464FF00008A9697F1C01988847296A8B
:1001E000824688470028F6D1BAF1FF3F0CD024F4AC
:1001F000C064002E19DD600614D5BAF12B0F09D0AA
:10020000BAF12D0F0ED103E0584604B0BDE8F09FBF
:1002100044F48064A9697F1C01988847761E824651
:10022000002E02DDBAF1300F03D0B9F1000F26D055
:1002300032E0A969761E44F400747F1C0198884757
:100240008246002E05DDBAF1780F06D0BAF1580FBC
:1002500003D0B9F1000F10D01EE0B9F1000F02D0A9
:10026000B9F1100F18D1A969761E24F400747F1C0F
:10027000019888478246102002E0082000E00A200A
:10028000814609E008FB0908A969761E44F4007458
:100290007F1C019888478246002E05DD494650465E
:1002A00000F09EFB0028EDDAE96901988847A00577
:1002B00002D46FF00100A8E7E00725D1600613D54E
:1002C000600502D5C8F1000000E0404629680A1D1B
:1002D0002A600968220501D5087015E0220701D5BA
:1002E000088011E008600FE02868011D296000689F
:1002F000210502D580F8008006E0210702D5A0F88C
:10030000008001E0C0F8008038467EE72DE9FF5FFD
:10031000D2E901A74FF00008916999461446DDF82B
:1003200038B0464601988847054659EA0B0005D083
:1003300009E0A169761C019888470546216A28468C
:1003400088470028F5D1681C03D05FEACA7005D041
:1003500015E04FF0FF3004B0BDE8F09F2068011DAC
:100360002160D0F800800AE05FEACA7001D108F885
:10037000015BA169761C7F1E019888470546002F06
:100380001ADD681C18D0B9F1000F0DD0E81705EB85
:10039000D060421120F01F0059F822102A1A0120C3
:1003A00090400142E0D107E0BBF1000FDCD1216AAF
:1003B000284688470028D7D0E16901988847BBF1D3
:1003C000000F07D1002E05DD5FEACA7002D10021BF
:1003D00088F80010A068B84203DDBBF1000F03D01D
:1003E00017B16FF00100B6E73046B4E72DE9FF4FD3
:1003F000087881B09946FF2805D0491C2D2804D0E3
:100400000024002308E000230BE00124F9E703EBBC
:10041000830300EB4303491C0878FF28F7D104B19C
:100420005B4200200090147801462D2C01D02B2C2B
:1004300004D1521C2D2C12D00024009400251678D3
:10044000FF2E0ED00A24A0FB04C801FB0481002764
:1004500000FB0711521C16EB0C006941EFE7012469
:10046000EBE7994450EA01020ED00024AA4D26463B
:10047000DFF8A88200F004FC82468B46B9F1000048
:1004800009DAC9F100071BE001980021C0E9001159
:1004900005B0BDE8F08F074612E0F80707D0224606
:1004A0002B463046414600F03DF906468846224636
:1004B0002B461046194600F035F904460D467F10CC
:1004C000002FEAD1B9F1000F324643465046594653
:1004D00002DA00F099F901E000F024F9009A0AB17B
:1004E00081F00041019AC2E90001D1E72DE9FF4FF7
:1004F0001F468DB0D7E901464FF0FF382E20454604
:100500004FF000090B90B9696D1C0E988847396A45
:10051000824688470028F6D1BAF1FF3F0AD024F47A
:10052000D064002E11DDBAF12B0F08D0BAF12D0FD7
:100530000BD102E0404611B0ABE744F48064B969E6
:100540006D1C0E9888478246761E6946600501D567
:100550002D2000E02B208DF8000001F1010B0DF1A2
:10056000200809E0B9696D1C0E98884782460F98EB
:1005700044F40074761E0560002E02DDBAF1300FDF
:10058000F0D00B998A453ED144F0800406E00F99E3
:10059000681CA9F1010944F400740860B9696D1C74
:1005A000761E0E98884782463028F0D02BE00B99B3
:1005B0008A4505D1200603D444F08004761E18E055
:1005C000504601F0FBFB08B30DF11301761E44F415
:1005D00000748B4508D2AAF130000BF8010B2006FD
:1005E00007D5A9F1010003E0200602D409F10100BA
:1005F0008146A00502D50F99681C0860B9696D1C79
:100600000E9888478246002ED1DC53E0002E51DD43
:10061000BAF1650F02D0BAF1450F4BD1A00549D50B
:10062000B9696D1C24F44074761E0E988847824682
:10063000002E0CDD2B2804D0BAF12D0F07D144F485
:100640008074B9696D1C0E9888478246761EE00555
:1006500001D52D2100E02B2108F8011BCDF82C80BD
:1006600021E00DF12901761E44F4007488450CD276
:10067000AAF1300010F0FF0088F8000002D10B99B9
:10068000884509D908F1010806E0E00501D52448AC
:1006900001E042F20F708146B9696D1C0E988847DF
:1006A00082460F980560002E04DD504601F086FB5F
:1006B0000028D6D1F9690E988847FF208BF80000F2
:1006C00088F800000020069007904B466A4608A96B
:1006D00006A8FFF78BFEA00502D46FF001002AE701
:1006E00014F0240F0AD0E00714D1DDE906123868AF
:1006F000031D3B600068C0E900120BE0DDE9060164
:1007000000F0FAFA0146E00704D13868021D3A60A9
:100710000068016028460EE7000024400000F03F1A
:10072000F1D8FFFF2DE9FE4F81EA030404F00044F5
:1007300021F0004100944FF0000B23F0004350EAF9
:1007400001045ED052EA03045BD0C3F30A54C1F340
:100750000A552C44A4F2F3340194A0FB0254C1F3D3
:10076000130141F48011C3F3130343F4801301FB1D
:10077000024400FB034E840A970A44EA815447EA84
:100780008357A4FB076802958D0A05FB07854FEA8E
:10079000932C04FB0C542705029D4FEA065847EAA8
:1007A0001637B5EB08056EEB070C870E920E47EA7D
:1007B000811742EA8312A7FB0201B6EB0B0164EB3F
:1007C00000042B0D43EA0C335E1844EB1C50DA4650
:1007D0005146E7FB0201C5F313044FEA0B3343EA2A
:1007E00014534FEA0432019C43EA0603A4F10C04BB
:1007F0000294009CCDE900B400F04DF903B0BDE8CF
:10080000F08F00200146F9E72DE9F04D81EA03045D
:1008100004F0004B21F0004514464FF0000A23F08D
:10082000004150EA050220D054EA01021DD0C5F370
:100830000A570246C5F31303C1F31300C1F30A5666
:1008400040F4801543F48013A7EB0608101BD6462E
:1008500008F2FD3873EB050002D308F1010801E04E
:1008600092185B41B8F1000F03DA00200146BDE8A1
:10087000F08D00204FF48011064684460EE0171BD1
:1008800073EB050705D3121B63EB050306434CEA24
:10089000010C49084FEA300092185B4150EA010709
:1008A000EDD152EA030012D082EA040083EA050186
:1008B000084305D0101BAB4106D20122002306E0FD
:1008C00000224FF0004302E06FF0010253101AEBD8
:1008D00006004CEB085110EB0A0041EB0B01BDE8A0
:1008E000F04D00F0C9B80EB540F23341029100213D
:1008F000CDE900110A460B4600F0CDF803B000BD6B
:10090000C1F30A5210B5C1F3130140F2FF3341F4B1
:1009100080119A4201DA002010BD40F233439A421E
:10092000A2F2334203DC524200F04AF810BD90407C
:1009300010BD30B50B46014600202022012409E0FD
:1009400021FA02F59D4205D303FA02F5491B04FA88
:1009500002F52844151EA2F10102F1DC30BD2DE99B
:10096000F05F0546002092469B4688460646814633
:1009700040241BE0284641464746224600F020F826
:1009800053465A46C01A914110D311461846224682
:1009900000F0F6F92D1A67EB01084F4622460120B8
:1009A000002100F0EDF917EB00094E41201EA4F1E3
:1009B0000104DFDC484631462A464346BDE8F09F45
:1009C000202A04DB203A21FA02F00021704721FAA4
:1009D00002F3D040C2F1200291400843194670470B
:1009E0003A2800D2303820F02002412A01D3A2F167
:1009F0003700884201D34FF0FF307047026811443E
:100A00001378016018467047D16004495161044968
:100A1000116200211161114600F0D8B9FD090008EA
:100A2000C30D0008426842B1016811F8013B23B1CF
:100A3000521EC0E90012184670470121C160881E8D
:100A4000704742685AB1C368016843B983688B42F2
:100A500005D0491E521CC0E90012002070474FF01B
:100A6000FF307047024B9361024BD361FFF7CCBF5D
:100A7000FD240008710D000810B5141E73F1000468
:100A800008DA401C41F1000192185B411A4301D180
:100A900020F0010010BD2DE9F04D92469B4611B1AA
:100AA000B1FA81F202E0B0FA80F22032904600F012
:100AB00067F904460F4640EA0A0041EA0B01534633
:100AC0005A46084313D0114653EA010019D0C8F121
:100AD00040025046FFF774FF05460E465046594601
:100AE000424600F04DF9084305D0012004E02046BD
:100AF0003946BDE8F08D0020054346EAE0762C43F8
:100B000037430A986305E40AA0EB08000022FD0AB7
:100B100044EA47540A3002D500200146E9E70105BE
:100B200010196941DDE9084500196941BDE8F04D3A
:100B3000A2E72DE9FE4F804681EA0300C00F0C4674
:100B4000009021F0004123F00045B8EB0200A941DC
:100B500005D24046214690461C460B46024623F0ED
:100B60000040104347D0270DC7F30A00C3F30A51D2
:100B70000290401A019040286BDAC3F3130040F44E
:100B8000801B0098924620B10023D2EB030A63EB4E
:100B90000B0B01985946C0F14002504600F0F0F8A6
:100BA00006460D4650465946019A00F0F8F810EBFB
:100BB00008006141002487EA115284EAE7731A436E
:100BC00040D0009A62B3019A012A4FEA075215DC1D
:100BD000001B61EB02014FF0004202EA0752CDE92F
:100BE0000042001C41F5801132462B46FFF753FFAF
:100BF00003B0BDE8F08F40462146F9E7001B61EBEA
:100C00000201001C41F5801300185B412018A2F579
:100C1000001747EB030140EAD570B6196D4111E0AA
:100C20006D084FEA360645EAC0754FEA0752001BC9
:100C300061EB0201001C41F5801149084FEA3000C8
:100C40000019514132462B4603B0BDE8F04FFFF783
:100C500013BF0098012240000023D0EB020263EB97
:100C6000E073009821464FEAE074B8EB000061EBB6
:100C70000401E9E783F000435BE781F0004158E7B6
:100C80000EB540F2334202920022CDE90022134613
:100C9000FFF701FF03B000BDC1F30A52C1F3130116
:100CA00040F2FF3341F480119A4202DA00200146FB
:100CB000704740F233439A42A2F2334202DC52427E
:100CC000FFF77EBE00F05CB830B5041E71F1000481
:100CD00004DB4FF00044404264EB0101141E73F149
:100CE000000405DB1C464FF00043524263EB040353
:100CF000994208BF904230BD01F0004330B421F06A
:100D0000004150EA010206D00A0DA2F56072C1F35B
:100D10001301002A02DC30BC00207047440F44EA73
:100D2000C104C100E01830BC00EBC25000F0E4B9CF
:100D3000064C074D06E0E06840F0010394E8070028
:100D400098471034AC42F6D3FFF7F6F9EC250008CB
:100D50000C260008094910B508784C1C18B1401E33
:100D60000870205C10BD00210720ABBE207010BDB4
:100D700002490878421C0A70704700002C000020CD
:100D8000202A04DB203A00FA02F10020704791404B
:100D9000C2F1200320FA03F3194390407047202A40
:100DA00006DBCB17203A41FA02F043EAE07306E093
:100DB00041FA02F3D040C2F12002914008431946A3
:100DC0007047C0B24FF4F05100F0CEB92DE9F34FA7
:100DD0008BB04FF0000801F10C000C464FF0010BF6
:100DE00046460DF1080A0190626901210198904779
:100DF00005002DD0252D2CD0216A8847C0B162690D
:100E0000012101989047216A88470028F7D1411EA7
:100E100062690198904700E0761CA1690B988847A9
:100E2000216A88470028F7D1E1690B988847DBE7FA
:100E3000A1690B9888470746A84201D1761CD3E7E1
:100E4000E1690B9888477F1C02D1B8F1000F6FD081
:100E500046E1002762693D463946019890472A28B5
:100E600004D162690121019890470125DFF884923D
:100E70006269012101989047A0F130010A290AD244
:100E80004F45E5DC07EB870100EB4107303FDFD43E
:100E900045F01005ECE7E90601D46FF000476C2837
:100EA0000AD04C2814D0682815D06A280DD0742890
:100EB0001CD07A281AD01DE0626901210198904760
:100EC0006C2802D045F0040514E045F002050DE061
:100ED00045F020050AE062690121019890476828E1
:100EE00002D045F0080505E045F40065626901217E
:100EF00001989047C4E9015765283DD019DC58286E
:100F00007AD00CDC452837D004DC252826D04128AF
:100F100031D131E046282FD047282CD12CE05B2856
:100F200077D0612828D063287CD0642823D15AE068
:100F3000D0E06F2848D008DC66281DD067281BD079
:100F4000692821D06E2816D127E0702845D0732853
:100F500068D0752847D078280DD14DE0A1690B984D
:100F60008847054625283FF469AFE1690B98884713
:100F70006D1C3FF46AAFB3E023466A466FF0010090
:100F80000B99FFF7B3FA9EE045F040006060A807B8
:100F900023464FF0000236D43EE0E8077FF447AF27
:100FA0002068011D21600068290501D506701BE736
:100FB000290701D5068017E7A90703D5F117C0E96E
:100FC000006111E706600FE745F040006060A80788
:100FD00023464FF0080216D41EE040F60E0125EA23
:100FE0000100606016E045F040006060A8072346FD
:100FF0004FF00A0207D40FE045F040006060A807F8
:1010000008D5234610226FF001000B99AFF3008042
:1010100059E007E0234610226FF001000B99FFF71B
:10102000CFF850E04FF000094F464B46632802D0FE
:101030005B2806D040E0E80601D40120A06001272B
:101040003AE062690121019890475E2805D14FF08E
:1010500001096269494601989047216939B900211F
:101060000A46534643F82120491C0829FADBB0B34D
:10107000216969B9C11700EBD16253110AEB8301F1
:1010800022F01F02821A01200B68904003430B607C
:1010900062690121019890475D28E8D1B9F1000FFC
:1010A00009D00020514651F82020D24341F8202099
:1010B000401C0828F7DB02AB224600976FF00100C6
:1010C0000B99FFF723F900280CDA401C08D1BBF17B
:1010D000000F05D04FF0FF300DB0BDE8F08FFFE7F7
:1010E0004046F9E7E90701D108F1010806444FF04D
:1010F000000B79E6CCCCCC0C0029A8BF7047401C73
:10110000490008BF20F00100704710B4B0FA80FC1D
:1011100000FA0CF050EA010404BF10BC704749B15A
:10112000CCF1200421FA04F411FA0CF118BF0121CA
:1011300021430843A3EB0C01CB1D4FEA00614FEAAA
:10114000102042BF002010BC704700EBC350104479
:101150000029A4BF10BC7047401C490008BF20F004
:10116000010010BC704700007F2801D9002208E070
:10117000064A02EB5002C007127800D1120902F0B1
:101180000F0201209040084070470000AC25000885
:10119000FEE7704704490A6822F010020A600A68F4
:1011A00002430A607047000000200240034A1168B1
:1011B00001F0380101431160704700000020024037
:1011C00008B53020ADF8000010208DF80300032092
:1011D0008DF802006946024800F004F808BD0000DE
:1011E00000080140F0B5CA78002502F00F03D206CE
:1011F00001D58A7813430A784FF00F0E12F0FF0FD3
:101200004FF001021CD004680F8802FA05F637403F
:10121000B74211D14FEA850C0EFA0CF724EA070702
:1012200003FA0CF43C43CF78282F02D0482F02D089
:1012300002E0466100E006616D1C082DE4D3046005
:101240000C88FF2C1ED944685FF0000606F10807E1
:1012500002FA07F50F882F40AF420FD14FEA860CF4
:101260000EFA0CF7BC4303FA0CF73C43CF78282F57
:1012700000D14561CF78482F00D10561761C082E3A
:10128000E4D34460F0BD0AB1016170474161704729
:10129000FEE7FEE77047000070B50F23C4780178C1
:1012A0000122F4B1144C2468457804F4E064C4F5D8
:1012B000E064240AC4F10406E3408478B5401C408D
:1012C0002C4301F1E021230181F80034007800F083
:1012D0001F018A404009800000F1E020C0F8002191
:1012E00070BD01F01F0082404809800000F1E0203D
:1012F000C0F8802170BD00000CED00E002490843F9
:1013000002490860704700000000FA050CED00E09B
:1013100004480021017042F21071C160491041601F
:10132000816070470000002070470000044A0029D7
:10133000D16901D0014300E08143D16170470000D1
:1013400000100240044A0029916901D0014300E0E5
:1013500081439161704700000010024010B500F019
:1013600039F84FF48034204600F0C6F800F00CF94C
:10137000012823D1002000F0B5F8002000F0E0F8AB
:10138000A01100F0D3F80220FFF710FF1020FFF7A4
:1013900001FF4FF4E011204600F0E2F8012000F0D8
:1013A000D9F8392000F07EF80028FAD0022000F0A9
:1013B000E1F800BF00F08EF80828FBD101210846B3
:1013C000FFF7B4FFBDE81040012144F20C00FFF725
:1013D000B9BF00000C48016841F00101016041689B
:1013E0000A4A114041600168094A114001600168E0
:1013F00021F480210160416821F4FE0141604FF435
:101400001F01816070470000001002400000FFF8DB
:10141000FFFFF6FE30B51F494A6812F00C031E4A62
:1014200003D0042B01D0082B21D002604A680F237F
:101430001A4C03EA1212A35C0268DA4042604B685D
:10144000072505EA1323E35C22FA03F383604B6864
:1014500005EAD323E35CDA40C2604968032303EA68
:101460009131231F595CB2FBF1F1016130BD4A6833
:101470004B6802F470124FF0020413F4803F04EB47
:10148000924202D04B689B0301D5054B00E0024B12
:101490005A43CAE70010024000127A0014000020EC
:1014A00000093D000246002053090949012B0BD0D9
:1014B000022B0BD0D1F8241002F01F02012393401D
:1014C0000B4200D0012070470968F5E7096AF3E78D
:1014D000001002400248406800F00C007047000015
:1014E00000100240034A516821F0F00101435160AD
:1014F00070470000001002400B490A6822F4803255
:101500000A600A6822F480220A60B0F5803F07D0A2
:10151000B0F5802F03D1086840F4A0200860704720
:10152000086840F48030F9E700100240034A51682F
:1015300021F4E06101435160704700000010024057
:1015400003494A6822F4605242EAC000486070478A
:101550000010024001490866704700000000424246
:10156000034A5368084323F47C13184350607047C0
:1015700000100240034A516821F003010143516009
:10158000704700000010024018B500204FF4A0641E
:1015900000903120FFF786FF0099491C0091A1427D
:1015A00001D00028F5D03120FFF77CFF002800D0C3
:1015B000012018BD704700000CB50021264801919C
:1015C0000091026842F4803202604FF4A063026826
:1015D00002F400320092019A521C0192009A12B950
:1015E000019A9A42F3D10268920333D50121009106
:1015F0001A490A6842F010020A600A6822F00302DF
:101600000A600A6842F002020A604168416041686B
:101610004160416841F480614160416821F47C117E
:101620004160416841F4E8114160016841F0807116
:10163000016001688901FCD5416821F00301416026
:10164000416841F0020141604168C1F38101022912
:10165000FAD10CBD00910CBD0010024000200240E8
:10166000704700000F4810B5016841F001010160AA
:1016700041680D4A1140416001680C4A1140016007
:10168000016821F480210160416821F4FE0141607C
:101690004FF41F018160FFF78FFF05494FF0006095
:1016A000086010BD001002400000FFF8FFFFF6FECA
:1016B00008ED00E0F8B54FF08047384600F06BF8D1
:1016C000ADF800000221384600F067F8002849D044
:1016D000254D2648264B29680068264C81420CD1AE
:1016E000012210211846FFF7CEFDBDF80000401E74
:1016F00081B2384600F0A6F832E01F4E31688142D0
:101700000CD1002210211846FFF7BDFDBDF80000E6
:10171000401E81B2384600F095F819E0207840B1BB
:10172000012210211846FFF7AEFDBDF80000298800
:1017300007E0002210211846FFF7A5FDBDF80000C4
:101740003188084481B2384600F07CF8207838B1FE
:10175000002020703846BDE8F840022100F00EB8A5
:101760000120F6E7F8BD0000040000200C00002076
:10177000000801400000002008000020C943018249
:1017800070470029018802D041F0010101E021F0F9
:10179000010101807047808E704702460020138A45
:1017A00092890B4202EA010202D0002A00D00120F5
:1017B0007047002A828901D00A4300E08A4382816F
:1017C0007047000030B5028C22F001020284028CC6
:1017D0008388048B22F0020224F073050C882C43CA
:1017E0000D8915434A882A43114DA8420BD0114D4B
:1017F000A84208D0104DA84205D0104DA84202D0F2
:101800000F4DA8420DD122F008054A8923F44073F8
:101810002A4322F004058A882A438D891D43CB89F7
:101820002B4383800483C9888186028430BD0000F5
:10183000002C0140003401400040014000440140C0
:10184000004801408186704730B502881B4B1C4C14
:1018500098420DD0A0420BD0B0F1804F08D0194D66
:10186000A84205D0184DA84202D0184DA84203D175
:1018700022F070054A882A43154DA84206D0154D1E
:10188000A84203D022F44075CA882A4302808A887D
:1018900082850A88028598420AD0A04208D00E4A62
:1018A000904205D00D4A904202D00D4A904201D19B
:1018B000097A01860121818230BD0000002C01409F
:1018C000003401400004004000080040000C0040CB
:1018D000001000400014004000400140004401405E
:1018E0000048014030B589B04FF6FF70ADF80400F4
:1018F0004720ADF8000000244FF08045ADF80240CD
:1019000069462846FFF7A0FFADF8104004A9284615
:10191000FFF758FF012202212846FFF74AFF012165
:101920002846FFF72EFF4FF4E060FFF7E7FC1C208E
:101930008DF80C008DF80E4001208DF80F0003A8E3
:10194000FFF7AAFC09B030BD70B5A0B040F2255138
:101950001F4800F0CEF800282FD001A91DA0FEF7E7
:1019600003FC01A91CA000F057F91CAA1EA101A8A4
:10197000FEF70AFC012822D01BAA1EA101A8FEF72F
:1019800003FC012820D01EA000F046F92048214980
:101990000068B1FBF0F4FEF7A6FF06461E480D46B0
:1019A0000068FEF7A0FF32462B46FEF72DFF0246E9
:1019B0000B461AA0009400F02FF920B070BDDDE9AD
:1019C0001C0100F0CAFDE1E71B9800F0C7FDDDE750
:1019D00000380140257300005265636569766564CF
:1019E0003A25730A00000000647574793D256C6621
:1019F00000000000667265713D256C640000000007
:101A000057726F6E6720436F6D6D616E64210A00BF
:101A10000C00002040420F0004000020447574793F
:101A20003A25662C20467265713A256C640A0000DE
:101A30000029818902D041F4005101E021F40051D4
:101A40008181704770B586B005464FF40070ADF8DF
:101A5000100018208DF81300204E03248DF812403A
:101A600004A93046FFF7BEFB3015ADF81000042086
:101A70008DF813008DF8124004A93046FFF7B2FB31
:101A80004FF4E060FFF73AFC25208DF814000024A5
:101A90008DF8164001208DF8170005A8FFF7FCFB14
:101AA000ADF80440ADF80640ADF80840ADF80C4084
:101AB0000C200B4CADF80A0000956946204600F05A
:101AC0004FF8012240F22551204600F031F8012163
:101AD0002046FFF7ADFF06B070BD000000080140D2
:101AE000003801400246002012880A4200D001203E
:101AF000704730B501F01F0201240025C1F34213E5
:101B000004FA02F2012B0FD0022B0FD0838A4FEA86
:101B100011210088134204FA01F400EA040001D004
:101B200000B10125284630BD8389F0E7038AEEE73E
:101B300010B5C1F3421301F01F040121A140012B94
:101B400007D0022B07D01430002A026805D00A43C0
:101B500004E00C30F8E71030F6E78A43026010BD6D
:101B600030B50446008A85B00D464CF6FF7108403A
:101B7000E98801432182A1894EF6F3100140A8882B
:101B80002A8910436A890A431043A081A08A4FF62C
:101B9000FF410840A9890143A1826846FFF73AFC4A
:101BA0001948844201D1039800E00298A1890904F0
:101BB00000EBC00101EB0010296801D5490000E0ED
:101BC0008900B0FBF1F06422B0FBF2F109010B09CE
:101BD0006FF018056B4300EB8300A3891D044FF0E1
:101BE000320306D503EBC000B0FBF2F000F00700B3
:101BF00005E003EB0010B0FBF2F000F00F0008432B
:101C0000208105B030BD000000380140C1F308015B
:101C100081807047FEE700000FB4054B10B503A9A3
:101C2000044A029800F0D2F810BC5DF814FB0000E2
:101C30001D2500082800002002E008C8121F08C166
:101C4000002AFAD170477047002001E001C1121F3D
:101C5000002AFBD1704700002DE9FF5FDDE902207B
:101C6000010DDDF838B0024318D044F61050A1F24F
:101C7000FF3141430D140F98012820D0A5EB0B0034
:101C8000401C5FEA000A4FF00004474EDFF81C9149
:101C9000A046504616D5CAF1000728E00F98012447
:101CA00043A2012808D0002100980F9BC0E9002121
:101CB000C0E90243BDE8FF9F6FEA0B01F4E7CBF1F7
:101CC0000000DEE7074612E0F80707D02246334659
:101CD00040464946FEF726FD804689462246334661
:101CE00010461946FEF71EFD04460E467F10002FD3
:101CF000EAD1DDE90201BAF1000F42464B4602DAB1
:101D0000FEF710FD01E0FEF77FFD04460E460022BF
:101D1000284BFEF7D9FF03D84FF0FF30014607E00C
:101D20000022254B20463146FEF703FFFEF7B4FFA5
:101D3000102409E0002C0ADB0A220023FEF70FFE24
:101D4000019B30321A55641E50EA0102F2D1641C24
:101D5000019AC4F1110314440F9A012A03D00122FD
:101D600008430DD10AE0084304D000204FF0110BC6
:101D70000F9080E7A3EB0B056D1E0DE05B4504DDC6
:101D80004FF0000205F1010504E003DA4FF0000214
:101D9000A5F10105002AECD000980F99C0E90231A5
:101DA000C0E9004586E70000000024400000F03F45
:101DB000300000000000F0430000E03F30380A2807
:101DC00001D2012070470020704700002DE9FF4F2D
:101DD00095B09B468946064600250FE2252877D117
:101DE00000242746F84A0121059400E0044316F830
:101DF000013F203B01FA03F01042F7D130782A2846
:101E000011D06FF02F033078A0F13002092A16D8D4
:101E1000059A44F0020402EB820203EB42021044F2
:101E2000761C0590EFE759F8042B0592002A03DA97
:101E3000504244F40054059044F00204761C30787B
:101E40002E2816D116F8010F44F004042A280DD0CC
:101E50006FF02F023078A0F13003092B09D807EB7F
:101E6000870302EB4303C718761CF3E759F8047B9A
:101E7000761C30786C280FD006DC4C2817D06828E8
:101E80000DD06A2814D104E0742810D07A280FD11C
:101E90000DE044F400140AE044F4801401E044F43A
:101EA00040147278824202D104F58014761C761CAC
:101EB000307866280BD013DC582877D009DC00284E
:101EC00075D04528F6D04628F4D047281AD19DE190
:101ED00018E0632835D0642879D0652812D195E1BF
:101EE000702873D008DC6728F1D069286FD06E287D
:101EF0000DD06F2806D1B5E073282CD0752875D089
:101F0000782874D05A46179990476D1C75E1C4F330
:101F10000250022809D003280DD0D9F80010042857
:101F20000DD00D6009F1040967E1D9F80010EA1736
:101F3000C1E90052F6E7D9F800100D80F2E70D7004
:101F4000F0E719F8041B8DF8001000208DF801004F
:101F5000EA46012003E059F804AB4FF0FF30610777
:101F60004FF0000102D40DE008F101018846B942AA
:101F70000FDA8045F8DB1AF808100029F4D108E0E0
:101F800008F1010188468142FADB1AF8081000299D
:101F9000F6D105985B46A0EB080721463846179A0C
:101FA00000F094FA284400EB080507E04DE029E131
:101FB0000DE01AF8010B5A4617999047B8F101083D
:101FC000F7D25B4621463846179A13E142E00A22CF
:101FD0000092C4F302524FF0000A022A08D059F8C6
:101FE00004CB032A4FEAEC710AD00DE029E02AE085
:101FF00009F1070121F00702F2E802C1914609E068
:102000000FFA8CFC4FEAEC71042A03D14FFA8CFCD6
:102010004FEAEC71002907DA0A460021DCF1000CD6
:1020200061EB02012D2202E0220504D52B228DF85E
:102030000420012203E0E20701D02022F7E79046C6
:1020400059E00A2102E010220DE010214FF0000AB1
:1020500000910BE010224FF0000A44F0040408271E
:10206000009203E008224FF0000A0092C4F30252EB
:10207000022A05D059F804CB0021032A08D009E030
:1020800009F1070121F00702F2E802C1914605E0DB
:102090001FFA8CFC042A01D10CF0FF0C4FF0000851
:1020A000220728D5702806D0009B83F0100353EA3E
:1020B0000A0305D00EE040228DF80420012208E03A
:1020C0005CEA010206D030228DF804208DF805006C
:1020D00002229046009B83F0080353EA0A030AD1C8
:1020E0005CEA010201D1620705D530228DF8042097
:1020F0004FF001087F1E582804D034A003900EA88A
:1021000002900DE036A0F9E753466046009AFEF7CC
:1021100026FC84460398825C0298401E029002705E
:102120005CEA0100F0D1029806A9081A00F1200A21
:10213000600702D524F4803400E00127574502DD12
:10214000A7EB0A0000E0002000EB0A0100900598D0
:102150004144401A0590E00306D45B462146179A95
:10216000059800F0B3F90544002706E001A85A4697
:10217000C05D179990476D1C7F1C4745F6DBE00357
:102180000CD55B462146179A059800F09FF9054447
:1021900004E030205A46179990476D1C0099481E5C
:1021A00000900029F5DC08E0029802995A46007870
:1021B000491C0291179990476D1CBAF10001AAF1D0
:1021C000010AF1DC65E100000928010030313233F9
:1021D0003435363738396162636465660000000063
:1021E000303132333435363738394142434445464D
:1021F0000000000000F058F90544761C30780028F3
:102200007FF4ECAD19B02846BDE8F08F620700D42A
:10221000062709F1070222F0070CFCE80223E14639
:1022200003F000485FEA080C02D00FF2702C0DE0BA
:102230005FEA045C02D50FF2682C07E05FEAC47C19
:1022400002D00FF2602C01E0AFF2700C4FF0FF38BB
:1022500023F00043CDF850C065280CD006DC45289B
:1022600009D046281DD047283DD13DE0662818D02A
:1022700067287ED138E00021112F01DB112000E01A
:10228000781CCDE9000106A90EA8FFF7E5FCDDE901
:102290000F010E9A03910021009207F1010A0491A7
:1022A0004DE04FF000400097CDE9011006A90EA8BF
:1022B000FFF7D2FCDDE90F0203920E9B1199002279
:1022C000DDF80CA00093049211B9791C00EB010A0F
:1022D000B7EB0A0004D4C0F1FF3007F1010A049003
:1022E000AAEB0700019044E0012F00DA012700214A
:1022F000112F01DD112000E03846CDE9000106A9CB
:102300000EA8FFF7A9FCDDE90F010E9A0391002149
:1023100004910092BA4621070CD40399514500DA82
:102320008A46BAF1010F05DD009AAAF10101515C5C
:10233000302908D0B84202DA10F1040F06DA012180
:10234000CDE9011015E0AAF10101E9E7002805DC5B
:10235000049901440491AAEB000102E0411C51459B
:1023600000DD8A460499401A401C01904FF000405D
:102370000290200704D40198504501DBCDF8048079
:1023800000208DF84F0002980DF14F07B0F1004F7B
:1023900025D02B200E9002984FF0020800280CDA6E
:1023A000404202902D200E9007E00A210298FEF78D
:1023B000C0FA3031029007F8011DB8F10001A8F110
:1023C0000108F2DC02980028EFD1791E0E980870FF
:1023D000307800F0200040F0450007F8020D12A808
:1023E000C01B00F107081498007800B1012000EB31
:1023F0000A01019801EBE07105984144401A401E22
:102400000590E00306D45B462146179A059800F034
:102410005DF805441498007818B15A46179990470A
:102420006D1CE00324D55B462146179A059800F001
:102430004DF805441CE00498002807DBDDE90301A2
:10244000884203DD0098405C179901E0179930201D
:102450005A469047049805F10105401C04900198E4
:10246000401E019004D12E205A46179990476D1CAA
:10247000BAF10001AAF1010ADDDC05E017F8010B51
:102480005A46179990476D1CB8F10001A8F1010850
:10249000F4DC5B462146179A0598ABE62D00000058
:1024A0002B000000200000002DE9F041044600252B
:1024B0001E461746880404D405E039462020B0475C
:1024C0006D1C641EF9D52846BDE8F0812DE9F04168
:1024D000044600251E469046C80301D5302700E07B
:1024E0002027880404D505E041463846B0476D1CD6
:1024F000641EF9D52846BDE8F081000010B5064CF1
:1025000020212046FFF7EEFA0028F9D00248001DEE
:102510000088C0B210BD00000038014070B5074D02
:10252000044640212846FFF7DDFA0028F9D0E1B241
:102530002846FFF76BFB204670BD000000380140C5
:10254000FEF70CFFFEF73CFE4FF41650FFF77AFA49
:10255000FEF7DEFEFFF7C6F9FEE770472DE9F04112
:10256000104C0746E068FEF7BEF906460D46606867
:10257000FEF7B9F932462B46FEF746F905460A48FA
:102580000E46B0FBF7F73846E760FEF7ACF92A468F
:102590003346FEF7C7F8FEF7B3F96060381AA0605B
:1025A000BDE8F0810000002040420F00DDDDDDDDF0
:1025B000DCBBBBDDDDDDDDDDDDDDDDDD98888888D4
:1025C000888888887777777777888888855555567B
:1025D00066666666666666666668888883333332D2
:1025E00022222222222222222228888D0C26000842
:1025F0000000002030000000381C00083C260008C5
:102600003000002000040000481C0008000000000A
:1026100000000000000000000000000002040608A6
:102620000000000001020304010203040607080978
:0C2630000000000000000000000000009E
:0400000508000131BD
:00000001FF
